{
  "contractName": "DamiCoin",
  "abi": [
    {
      "inputs": [
        {
          "internalType": "uint256",
          "name": "initialSupply",
          "type": "uint256"
        }
      ],
      "stateMutability": "nonpayable",
      "type": "constructor"
    },
    {
      "anonymous": false,
      "inputs": [
        {
          "indexed": true,
          "internalType": "address",
          "name": "from",
          "type": "address"
        },
        {
          "indexed": false,
          "internalType": "uint256",
          "name": "amount",
          "type": "uint256"
        }
      ],
      "name": "Burn",
      "type": "event"
    },
    {
      "anonymous": false,
      "inputs": [
        {
          "indexed": true,
          "internalType": "address",
          "name": "to",
          "type": "address"
        },
        {
          "indexed": false,
          "internalType": "uint256",
          "name": "amount",
          "type": "uint256"
        }
      ],
      "name": "Mint",
      "type": "event"
    },
    {
      "anonymous": false,
      "inputs": [
        {
          "indexed": true,
          "internalType": "address",
          "name": "from",
          "type": "address"
        },
        {
          "indexed": true,
          "internalType": "address",
          "name": "to",
          "type": "address"
        },
        {
          "indexed": false,
          "internalType": "uint256",
          "name": "value",
          "type": "uint256"
        }
      ],
      "name": "Transfer",
      "type": "event"
    },
    {
      "inputs": [],
      "name": "name",
      "outputs": [
        {
          "internalType": "string",
          "name": "",
          "type": "string"
        }
      ],
      "stateMutability": "view",
      "type": "function"
    },
    {
      "inputs": [],
      "name": "owner",
      "outputs": [
        {
          "internalType": "address",
          "name": "",
          "type": "address"
        }
      ],
      "stateMutability": "view",
      "type": "function"
    },
    {
      "inputs": [],
      "name": "symbol",
      "outputs": [
        {
          "internalType": "string",
          "name": "",
          "type": "string"
        }
      ],
      "stateMutability": "view",
      "type": "function"
    },
    {
      "inputs": [],
      "name": "totalSupply",
      "outputs": [
        {
          "internalType": "uint256",
          "name": "",
          "type": "uint256"
        }
      ],
      "stateMutability": "view",
      "type": "function"
    },
    {
      "inputs": [
        {
          "internalType": "address",
          "name": "account",
          "type": "address"
        }
      ],
      "name": "balanceOf",
      "outputs": [
        {
          "internalType": "uint256",
          "name": "",
          "type": "uint256"
        }
      ],
      "stateMutability": "view",
      "type": "function"
    },
    {
      "inputs": [
        {
          "internalType": "address",
          "name": "recipient",
          "type": "address"
        },
        {
          "internalType": "uint256",
          "name": "amount",
          "type": "uint256"
        }
      ],
      "name": "transfer",
      "outputs": [
        {
          "internalType": "bool",
          "name": "",
          "type": "bool"
        }
      ],
      "stateMutability": "nonpayable",
      "type": "function"
    },
    {
      "inputs": [
        {
          "internalType": "uint256",
          "name": "amount",
          "type": "uint256"
        }
      ],
      "name": "mint",
      "outputs": [
        {
          "internalType": "bool",
          "name": "",
          "type": "bool"
        }
      ],
      "stateMutability": "nonpayable",
      "type": "function"
    },
    {
      "inputs": [
        {
          "internalType": "uint256",
          "name": "amount",
          "type": "uint256"
        }
      ],
      "name": "burn",
      "outputs": [
        {
          "internalType": "bool",
          "name": "",
          "type": "bool"
        }
      ],
      "stateMutability": "nonpayable",
      "type": "function"
    }
  ],
  "bytecode": "0x60c060405260086080819052672230b6b4a1b7b4b760c11b60a090815261002991600091906100fb565b506040805180820190915260038082526244434f60e81b6020909201918252610054916001916100fb565b5034801561006157600080fd5b506040516108133803806108138339818101604052602081101561008457600080fd5b5051600380546001600160a01b031916331780825560028390556001600160a01b03908116600090815260046020908152604080832086905593548451868152945193169391927fddf252ad1be2c89b69c2b068fc378daa952ba7f163c4a11628f55a4df523b3ef9281900390910190a35061019c565b828054600181600116156101000203166002900490600052602060002090601f0160209004810192826101315760008555610177565b82601f1061014a57805160ff1916838001178555610177565b82800160010185558215610177579182015b8281111561017757825182559160200191906001019061015c565b50610183929150610187565b5090565b5b808211156101835760008155600101610188565b610668806101ab6000396000f3fe608060405234801561001057600080fd5b50600436106100885760003560e01c80638da5cb5b1161005b5780638da5cb5b1461017b57806395d89b411461019f578063a0712d68146101a7578063a9059cbb146101c457610088565b806306fdde031461008d57806318160ddd1461010a57806342966c681461012457806370a0823114610155575b600080fd5b6100956101f0565b6040805160208082528351818301528351919283929083019185019080838360005b838110156100cf5781810151838201526020016100b7565b50505050905090810190601f1680156100fc5780820380516001836020036101000a031916815260200191505b509250505060405180910390f35b61011261027e565b60408051918252519081900360200190f35b6101416004803603602081101561013a57600080fd5b5035610284565b604080519115158252519081900360200190f35b6101126004803603602081101561016b57600080fd5b50356001600160a01b03166103ad565b6101836103c8565b604080516001600160a01b039092168252519081900360200190f35b6100956103d7565b610141600480360360208110156101bd57600080fd5b5035610431565b610141600480360360408110156101da57600080fd5b506001600160a01b0381351690602001356104e9565b6000805460408051602060026001851615610100026000190190941693909304601f810184900484028201840190925281815292918301828280156102765780601f1061024b57610100808354040283529160200191610276565b820191906000526020600020905b81548152906001019060200180831161025957829003601f168201915b505050505081565b60025481565b6003546000906001600160a01b031633146102d05760405162461bcd60e51b815260040180806020018281038252602781526020018061060c6027913960400191505060405180910390fd5b6003546001600160a01b031660009081526004602052604090205482111561033f576040805162461bcd60e51b815260206004820152601960248201527f4e65646f766f6c6a6e6f20746f6b656e61207a61206275726e00000000000000604482015290519081900360640190fd5b600280548390039055600380546001600160a01b03908116600090815260046020908152604091829020805487900390559254815186815291519216927fcc16f5dbb4873280815c1ee09dbd06736cffcc184412cf7a71a0fdb75d397ca592918290030190a2506001919050565b6001600160a01b031660009081526004602052604090205490565b6003546001600160a01b031681565b60018054604080516020600284861615610100026000190190941693909304601f810184900484028201840190925281815292918301828280156102765780601f1061024b57610100808354040283529160200191610276565b6003546000906001600160a01b0316331461047d5760405162461bcd60e51b815260040180806020018281038252602781526020018061060c6027913960400191505060405180910390fd5b6002805483019055600380546001600160a01b039081166000908152600460209081526040918290208054870190559254815186815291519216927f0f6798a560793a54c3bcfe86a93cde1e73087d944c0ea20544137d412139688592918290030190a2506001919050565b60006001600160a01b038316610539576040805162461bcd60e51b815260206004820152601060248201526f4e6576616c6a616e612061647265736160801b604482015290519081900360640190fd5b3360009081526004602052604090205482111561059d576040805162461bcd60e51b815260206004820152601d60248201527f4e65646f766f6c6a6e6f20746f6b656e61207a61207472616e73666572000000604482015290519081900360640190fd5b336000818152600460209081526040808320805487900390556001600160a01b03871680845292819020805487019055805186815290519293927fddf252ad1be2c89b69c2b068fc378daa952ba7f163c4a11628f55a4df523b3ef929181900390910190a35060019291505056fe53616d6f20766c61736e696b206d6f7a6520697a767273697469206f76752066756e6b63696a75a2646970667358221220415ab0cc16aa346df81df3112994fd0ec4697dd84e211350847659508dcf79ee64736f6c63430007060033",
  "immutableReferences": {},
  "source": "// SPDX-License-Identifier: GPL-3.0\npragma solidity  >=0.7.0 <=0.8.0;\n\ncontract DamiCoin {\n    string public name = \"DamiCoin\";   \n    string public symbol = \"DCO\";        \n                \n    uint256 public totalSupply;     \n    \n    address public owner;\n\n    mapping(address => uint256) private balances;\n    event Transfer(address indexed from, address indexed to, uint256 value);\n    event Mint(address indexed to, uint256 amount);\n    event Burn(address indexed from, uint256 amount);\n\n    modifier onlyOwner() {\n        require(msg.sender == owner, \"Samo vlasnik moze izvrsiti ovu funkciju\");\n        _;\n    }\n\n    constructor(uint256 initialSupply) {\n        owner = msg.sender;\n        totalSupply = initialSupply;\n        balances[owner] = initialSupply;\n        emit Transfer(address(0), owner, initialSupply);\n    }\n\n    function balanceOf(address account) public view returns (uint256) {\n        return balances[account];\n    }\n\n    function transfer(address recipient, uint256 amount) public returns (bool) {\n        require(recipient != address(0), \"Nevaljana adresa\");\n        require(balances[msg.sender] >= amount, \"Nedovoljno tokena za transfer\");\n\n        balances[msg.sender] -= amount;\n        balances[recipient] += amount;\n        emit Transfer(msg.sender, recipient, amount);\n        return true;\n    }\n\n    function mint(uint256 amount) public onlyOwner returns (bool) {\n        totalSupply += amount;\n        balances[owner] += amount;\n        emit Mint(owner, amount);\n        return true;\n    }\n\n    function burn(uint256 amount) public onlyOwner returns (bool) {\n        require(balances[owner] >= amount, \"Nedovoljno tokena za burn\");\n        totalSupply -= amount;\n        balances[owner] -= amount;\n        emit Burn(owner, amount);\n        return true;\n    }\n}\n",
  "sourcePath": "C:\\Users\\damja\\Desktop\\DamCoin\\contracts\\DamiCoin.sol",
  "compiler": {
    "name": "solc",
    "version": "0.7.6+commit.7338295f.Emscripten.clang"
  },
  "schemaVersion": "3.4.16",
  "updatedAt": "2025-02-18T19:18:15.808Z",
  "devdoc": {
    "kind": "dev",
    "methods": {},
    "version": 1
  },
  "userdoc": {
    "kind": "user",
    "methods": {},
    "version": 1
  }
}